{"contracts/FLRegistry.sol":{"FLRegistry":{"abi":[{"anonymous":false,"inputs":[{"indexed":true,"internalType":"uint256","name":"roundId","type":"uint256"},{"indexed":true,"internalType":"uint256","name":"clientId","type":"uint256"},{"indexed":false,"internalType":"bytes32","name":"updateHash","type":"bytes32"},{"indexed":false,"internalType":"uint32","name":"numSamples","type":"uint32"},{"indexed":false,"internalType":"int96","name":"epsilonTimes1e6","type":"int96"},{"indexed":false,"internalType":"uint64","name":"timestamp","type":"uint64"}],"name":"ClientCommit","type":"event"},{"anonymous":false,"inputs":[{"indexed":true,"internalType":"uint256","name":"roundId","type":"uint256"},{"indexed":false,"internalType":"bytes32","name":"globalModelHash","type":"bytes32"},{"indexed":false,"internalType":"string","name":"modelUri","type":"string"},{"indexed":false,"internalType":"uint32","name":"numClients","type":"uint32"},{"indexed":false,"internalType":"uint64","name":"timestamp","type":"uint64"}],"name":"RoundFinalized","type":"event"},{"inputs":[{"internalType":"uint256","name":"roundId","type":"uint256"},{"internalType":"uint256","name":"clientId","type":"uint256"},{"internalType":"bytes32","name":"updateHash","type":"bytes32"},{"internalType":"uint32","name":"numSamples","type":"uint32"},{"internalType":"int96","name":"epsilonTimes1e6","type":"int96"}],"name":"recordClientCommit","outputs":[],"stateMutability":"nonpayable","type":"function"},{"inputs":[{"internalType":"uint256","name":"roundId","type":"uint256"},{"internalType":"bytes32","name":"globalModelHash","type":"bytes32"},{"internalType":"string","name":"modelUri","type":"string"},{"internalType":"uint32","name":"numClients","type":"uint32"}],"name":"recordRoundFinal","outputs":[],"stateMutability":"nonpayable","type":"function"}],"evm":{"bytecode":{"linkReferences":{},"object":"608060405234801561001057600080fd5b506104ca806100206000396000f3fe608060405234801561001057600080fd5b50600436106100365760003560e01c80630388f9e61461003b57806351a383f614610057575b600080fd5b610055600480360381019061005091906101eb565b610073565b005b610071600480360381019061006c91906102cb565b6100b9565b005b83857fcc764439761d8740524a605553b347e2e898f60848419aeadb71d918d55e9393858585426040516100aa94939291906103a3565b60405180910390a35050505050565b847fa9dcdac9c6e3778f315d30860849628979c7ccaa5937c61312e98cf9cbc92c3185858585426040516100f1959493929190610446565b60405180910390a25050505050565b600080fd5b600080fd5b6000819050919050565b61011d8161010a565b811461012857600080fd5b50565b60008135905061013a81610114565b92915050565b6000819050919050565b61015381610140565b811461015e57600080fd5b50565b6000813590506101708161014a565b92915050565b600063ffffffff82169050919050565b61018f81610176565b811461019a57600080fd5b50565b6000813590506101ac81610186565b92915050565b600081600b0b9050919050565b6101c8816101b2565b81146101d357600080fd5b50565b6000813590506101e5816101bf565b92915050565b600080600080600060a0868803121561020757610206610100565b5b60006102158882890161012b565b95505060206102268882890161012b565b945050604061023788828901610161565b93505060606102488882890161019d565b9250506080610259888289016101d6565b9150509295509295909350565b600080fd5b600080fd5b600080fd5b60008083601f84011261028b5761028a610266565b5b8235905067ffffffffffffffff8111156102a8576102a761026b565b5b6020830191508360018202830111156102c4576102c3610270565b5b9250929050565b6000806000806000608086880312156102e7576102e6610100565b5b60006102f58882890161012b565b955050602061030688828901610161565b945050604086013567ffffffffffffffff81111561032757610326610105565b5b61033388828901610275565b935093505060606103468882890161019d565b9150509295509295909350565b61035c81610140565b82525050565b61036b81610176565b82525050565b61037a816101b2565b82525050565b600067ffffffffffffffff82169050919050565b61039d81610380565b82525050565b60006080820190506103b86000830187610353565b6103c56020830186610362565b6103d26040830185610371565b6103df6060830184610394565b95945050505050565b600082825260208201905092915050565b82818337600083830152505050565b6000601f19601f8301169050919050565b600061042583856103e8565b93506104328385846103f9565b61043b83610408565b840190509392505050565b600060808201905061045b6000830188610353565b818103602083015261046e818688610419565b905061047d6040830185610362565b61048a6060830184610394565b969550505050505056fea2646970667358221220eacaa4b1f6ba129eb92c73e1f6ab9bca2a19f332b89436fb4ec08309395e482f64736f6c63430008140033","opcodes":"PUSH1 0x80 PUSH1 0x40 MSTORE CALLVALUE DUP1 ISZERO PUSH2 0x10 JUMPI PUSH1 0x0 DUP1 REVERT JUMPDEST POP PUSH2 0x4CA DUP1 PUSH2 0x20 PUSH1 0x0 CODECOPY PUSH1 0x0 RETURN INVALID PUSH1 0x80 PUSH1 0x40 MSTORE CALLVALUE DUP1 ISZERO PUSH2 0x10 JUMPI PUSH1 0x0 DUP1 REVERT JUMPDEST POP PUSH1 0x4 CALLDATASIZE LT PUSH2 0x36 JUMPI PUSH1 0x0 CALLDATALOAD PUSH1 0xE0 SHR DUP1 PUSH4 0x388F9E6 EQ PUSH2 0x3B JUMPI DUP1 PUSH4 0x51A383F6 EQ PUSH2 0x57 JUMPI JUMPDEST PUSH1 0x0 DUP1 REVERT JUMPDEST PUSH2 0x55 PUSH1 0x4 DUP1 CALLDATASIZE SUB DUP2 ADD SWAP1 PUSH2 0x50 SWAP2 SWAP1 PUSH2 0x1EB JUMP JUMPDEST PUSH2 0x73 JUMP JUMPDEST STOP JUMPDEST PUSH2 0x71 PUSH1 0x4 DUP1 CALLDATASIZE SUB DUP2 ADD SWAP1 PUSH2 0x6C SWAP2 SWAP1 PUSH2 0x2CB JUMP JUMPDEST PUSH2 0xB9 JUMP JUMPDEST STOP JUMPDEST DUP4 DUP6 PUSH32 0xCC764439761D8740524A605553B347E2E898F60848419AEADB71D918D55E9393 DUP6 DUP6 DUP6 TIMESTAMP PUSH1 0x40 MLOAD PUSH2 0xAA SWAP5 SWAP4 SWAP3 SWAP2 SWAP1 PUSH2 0x3A3 JUMP JUMPDEST PUSH1 0x40 MLOAD DUP1 SWAP2 SUB SWAP1 LOG3 POP POP POP POP POP JUMP JUMPDEST DUP5 PUSH32 0xA9DCDAC9C6E3778F315D30860849628979C7CCAA5937C61312E98CF9CBC92C31 DUP6 DUP6 DUP6 DUP6 TIMESTAMP PUSH1 0x40 MLOAD PUSH2 0xF1 SWAP6 SWAP5 SWAP4 SWAP3 SWAP2 SWAP1 PUSH2 0x446 JUMP JUMPDEST PUSH1 0x40 MLOAD DUP1 SWAP2 SUB SWAP1 LOG2 POP POP POP POP POP JUMP JUMPDEST PUSH1 0x0 DUP1 REVERT JUMPDEST PUSH1 0x0 DUP1 REVERT JUMPDEST PUSH1 0x0 DUP2 SWAP1 POP SWAP2 SWAP1 POP JUMP JUMPDEST PUSH2 0x11D DUP2 PUSH2 0x10A JUMP JUMPDEST DUP2 EQ PUSH2 0x128 JUMPI PUSH1 0x0 DUP1 REVERT JUMPDEST POP JUMP JUMPDEST PUSH1 0x0 DUP2 CALLDATALOAD SWAP1 POP PUSH2 0x13A DUP2 PUSH2 0x114 JUMP JUMPDEST SWAP3 SWAP2 POP POP JUMP JUMPDEST PUSH1 0x0 DUP2 SWAP1 POP SWAP2 SWAP1 POP JUMP JUMPDEST PUSH2 0x153 DUP2 PUSH2 0x140 JUMP JUMPDEST DUP2 EQ PUSH2 0x15E JUMPI PUSH1 0x0 DUP1 REVERT JUMPDEST POP JUMP JUMPDEST PUSH1 0x0 DUP2 CALLDATALOAD SWAP1 POP PUSH2 0x170 DUP2 PUSH2 0x14A JUMP JUMPDEST SWAP3 SWAP2 POP POP JUMP JUMPDEST PUSH1 0x0 PUSH4 0xFFFFFFFF DUP3 AND SWAP1 POP SWAP2 SWAP1 POP JUMP JUMPDEST PUSH2 0x18F DUP2 PUSH2 0x176 JUMP JUMPDEST DUP2 EQ PUSH2 0x19A JUMPI PUSH1 0x0 DUP1 REVERT JUMPDEST POP JUMP JUMPDEST PUSH1 0x0 DUP2 CALLDATALOAD SWAP1 POP PUSH2 0x1AC DUP2 PUSH2 0x186 JUMP JUMPDEST SWAP3 SWAP2 POP POP JUMP JUMPDEST PUSH1 0x0 DUP2 PUSH1 0xB SIGNEXTEND SWAP1 POP SWAP2 SWAP1 POP JUMP JUMPDEST PUSH2 0x1C8 DUP2 PUSH2 0x1B2 JUMP JUMPDEST DUP2 EQ PUSH2 0x1D3 JUMPI PUSH1 0x0 DUP1 REVERT JUMPDEST POP JUMP JUMPDEST PUSH1 0x0 DUP2 CALLDATALOAD SWAP1 POP PUSH2 0x1E5 DUP2 PUSH2 0x1BF JUMP JUMPDEST SWAP3 SWAP2 POP POP JUMP JUMPDEST PUSH1 0x0 DUP1 PUSH1 0x0 DUP1 PUSH1 0x0 PUSH1 0xA0 DUP7 DUP9 SUB SLT ISZERO PUSH2 0x207 JUMPI PUSH2 0x206 PUSH2 0x100 JUMP JUMPDEST JUMPDEST PUSH1 0x0 PUSH2 0x215 DUP9 DUP3 DUP10 ADD PUSH2 0x12B JUMP JUMPDEST SWAP6 POP POP PUSH1 0x20 PUSH2 0x226 DUP9 DUP3 DUP10 ADD PUSH2 0x12B JUMP JUMPDEST SWAP5 POP POP PUSH1 0x40 PUSH2 0x237 DUP9 DUP3 DUP10 ADD PUSH2 0x161 JUMP JUMPDEST SWAP4 POP POP PUSH1 0x60 PUSH2 0x248 DUP9 DUP3 DUP10 ADD PUSH2 0x19D JUMP JUMPDEST SWAP3 POP POP PUSH1 0x80 PUSH2 0x259 DUP9 DUP3 DUP10 ADD PUSH2 0x1D6 JUMP JUMPDEST SWAP2 POP POP SWAP3 SWAP6 POP SWAP3 SWAP6 SWAP1 SWAP4 POP JUMP JUMPDEST PUSH1 0x0 DUP1 REVERT JUMPDEST PUSH1 0x0 DUP1 REVERT JUMPDEST PUSH1 0x0 DUP1 REVERT JUMPDEST PUSH1 0x0 DUP1 DUP4 PUSH1 0x1F DUP5 ADD SLT PUSH2 0x28B JUMPI PUSH2 0x28A PUSH2 0x266 JUMP JUMPDEST JUMPDEST DUP3 CALLDATALOAD SWAP1 POP PUSH8 0xFFFFFFFFFFFFFFFF DUP2 GT ISZERO PUSH2 0x2A8 JUMPI PUSH2 0x2A7 PUSH2 0x26B JUMP JUMPDEST JUMPDEST PUSH1 0x20 DUP4 ADD SWAP2 POP DUP4 PUSH1 0x1 DUP3 MUL DUP4 ADD GT ISZERO PUSH2 0x2C4 JUMPI PUSH2 0x2C3 PUSH2 0x270 JUMP JUMPDEST JUMPDEST SWAP3 POP SWAP3 SWAP1 POP JUMP JUMPDEST PUSH1 0x0 DUP1 PUSH1 0x0 DUP1 PUSH1 0x0 PUSH1 0x80 DUP7 DUP9 SUB SLT ISZERO PUSH2 0x2E7 JUMPI PUSH2 0x2E6 PUSH2 0x100 JUMP JUMPDEST JUMPDEST PUSH1 0x0 PUSH2 0x2F5 DUP9 DUP3 DUP10 ADD PUSH2 0x12B JUMP JUMPDEST SWAP6 POP POP PUSH1 0x20 PUSH2 0x306 DUP9 DUP3 DUP10 ADD PUSH2 0x161 JUMP JUMPDEST SWAP5 POP POP PUSH1 0x40 DUP7 ADD CALLDATALOAD PUSH8 0xFFFFFFFFFFFFFFFF DUP2 GT ISZERO PUSH2 0x327 JUMPI PUSH2 0x326 PUSH2 0x105 JUMP JUMPDEST JUMPDEST PUSH2 0x333 DUP9 DUP3 DUP10 ADD PUSH2 0x275 JUMP JUMPDEST SWAP4 POP SWAP4 POP POP PUSH1 0x60 PUSH2 0x346 DUP9 DUP3 DUP10 ADD PUSH2 0x19D JUMP JUMPDEST SWAP2 POP POP SWAP3 SWAP6 POP SWAP3 SWAP6 SWAP1 SWAP4 POP JUMP JUMPDEST PUSH2 0x35C DUP2 PUSH2 0x140 JUMP JUMPDEST DUP3 MSTORE POP POP JUMP JUMPDEST PUSH2 0x36B DUP2 PUSH2 0x176 JUMP JUMPDEST DUP3 MSTORE POP POP JUMP JUMPDEST PUSH2 0x37A DUP2 PUSH2 0x1B2 JUMP JUMPDEST DUP3 MSTORE POP POP JUMP JUMPDEST PUSH1 0x0 PUSH8 0xFFFFFFFFFFFFFFFF DUP3 AND SWAP1 POP SWAP2 SWAP1 POP JUMP JUMPDEST PUSH2 0x39D DUP2 PUSH2 0x380 JUMP JUMPDEST DUP3 MSTORE POP POP JUMP JUMPDEST PUSH1 0x0 PUSH1 0x80 DUP3 ADD SWAP1 POP PUSH2 0x3B8 PUSH1 0x0 DUP4 ADD DUP8 PUSH2 0x353 JUMP JUMPDEST PUSH2 0x3C5 PUSH1 0x20 DUP4 ADD DUP7 PUSH2 0x362 JUMP JUMPDEST PUSH2 0x3D2 PUSH1 0x40 DUP4 ADD DUP6 PUSH2 0x371 JUMP JUMPDEST PUSH2 0x3DF PUSH1 0x60 DUP4 ADD DUP5 PUSH2 0x394 JUMP JUMPDEST SWAP6 SWAP5 POP POP POP POP POP JUMP JUMPDEST PUSH1 0x0 DUP3 DUP3 MSTORE PUSH1 0x20 DUP3 ADD SWAP1 POP SWAP3 SWAP2 POP POP JUMP JUMPDEST DUP3 DUP2 DUP4 CALLDATACOPY PUSH1 0x0 DUP4 DUP4 ADD MSTORE POP POP POP JUMP JUMPDEST PUSH1 0x0 PUSH1 0x1F NOT PUSH1 0x1F DUP4 ADD AND SWAP1 POP SWAP2 SWAP1 POP JUMP JUMPDEST PUSH1 0x0 PUSH2 0x425 DUP4 DUP6 PUSH2 0x3E8 JUMP JUMPDEST SWAP4 POP PUSH2 0x432 DUP4 DUP6 DUP5 PUSH2 0x3F9 JUMP JUMPDEST PUSH2 0x43B DUP4 PUSH2 0x408 JUMP JUMPDEST DUP5 ADD SWAP1 POP SWAP4 SWAP3 POP POP POP JUMP JUMPDEST PUSH1 0x0 PUSH1 0x80 DUP3 ADD SWAP1 POP PUSH2 0x45B PUSH1 0x0 DUP4 ADD DUP9 PUSH2 0x353 JUMP JUMPDEST DUP2 DUP2 SUB PUSH1 0x20 DUP4 ADD MSTORE PUSH2 0x46E DUP2 DUP7 DUP9 PUSH2 0x419 JUMP JUMPDEST SWAP1 POP PUSH2 0x47D PUSH1 0x40 DUP4 ADD DUP6 PUSH2 0x362 JUMP JUMPDEST PUSH2 0x48A PUSH1 0x60 DUP4 ADD DUP5 PUSH2 0x394 JUMP JUMPDEST SWAP7 SWAP6 POP POP POP POP POP POP JUMP INVALID LOG2 PUSH5 0x6970667358 0x22 SLT KECCAK256 0xEA 0xCA LOG4 0xB1 0xF6 0xBA SLT SWAP15 0xB9 0x2C PUSH20 0xE1F6AB9BCA2A19F332B89436FB4EC08309395E48 0x2F PUSH5 0x736F6C6343 STOP ADDMOD EQ STOP CALLER "},"methodIdentifiers":{"recordClientCommit(uint256,uint256,bytes32,uint32,int96)":"0388f9e6","recordRoundFinal(uint256,bytes32,string,uint32)":"51a383f6"}}}}}