{
  "_format": "hh-sol-artifact-1",
  "contractName": "FLRegistry",
  "sourceName": "contracts/FLRegistry.sol",
  "abi": [
    {
      "anonymous": false,
      "inputs": [
        {
          "indexed": true,
          "internalType": "uint256",
          "name": "roundId",
          "type": "uint256"
        },
        {
          "indexed": true,
          "internalType": "uint256",
          "name": "clientId",
          "type": "uint256"
        },
        {
          "indexed": false,
          "internalType": "bytes32",
          "name": "updateHash",
          "type": "bytes32"
        },
        {
          "indexed": false,
          "internalType": "uint32",
          "name": "numSamples",
          "type": "uint32"
        },
        {
          "indexed": false,
          "internalType": "int96",
          "name": "epsilonTimes1e6",
          "type": "int96"
        },
        {
          "indexed": false,
          "internalType": "uint64",
          "name": "timestamp",
          "type": "uint64"
        }
      ],
      "name": "ClientCommit",
      "type": "event"
    },
    {
      "anonymous": false,
      "inputs": [
        {
          "indexed": true,
          "internalType": "uint256",
          "name": "roundId",
          "type": "uint256"
        },
        {
          "indexed": false,
          "internalType": "bytes32",
          "name": "globalModelHash",
          "type": "bytes32"
        },
        {
          "indexed": false,
          "internalType": "string",
          "name": "modelUri",
          "type": "string"
        },
        {
          "indexed": false,
          "internalType": "uint32",
          "name": "numClients",
          "type": "uint32"
        },
        {
          "indexed": false,
          "internalType": "uint64",
          "name": "timestamp",
          "type": "uint64"
        }
      ],
      "name": "RoundFinalized",
      "type": "event"
    },
    {
      "inputs": [
        {
          "internalType": "uint256",
          "name": "roundId",
          "type": "uint256"
        },
        {
          "internalType": "uint256",
          "name": "clientId",
          "type": "uint256"
        },
        {
          "internalType": "bytes32",
          "name": "updateHash",
          "type": "bytes32"
        },
        {
          "internalType": "uint32",
          "name": "numSamples",
          "type": "uint32"
        },
        {
          "internalType": "int96",
          "name": "epsilonTimes1e6",
          "type": "int96"
        }
      ],
      "name": "recordClientCommit",
      "outputs": [],
      "stateMutability": "nonpayable",
      "type": "function"
    },
    {
      "inputs": [
        {
          "internalType": "uint256",
          "name": "roundId",
          "type": "uint256"
        },
        {
          "internalType": "bytes32",
          "name": "globalModelHash",
          "type": "bytes32"
        },
        {
          "internalType": "string",
          "name": "modelUri",
          "type": "string"
        },
        {
          "internalType": "uint32",
          "name": "numClients",
          "type": "uint32"
        }
      ],
      "name": "recordRoundFinal",
      "outputs": [],
      "stateMutability": "nonpayable",
      "type": "function"
    }
  ],
  "bytecode": "0x608060405234801561001057600080fd5b506104ca806100206000396000f3fe608060405234801561001057600080fd5b50600436106100365760003560e01c80630388f9e61461003b57806351a383f614610057575b600080fd5b610055600480360381019061005091906101eb565b610073565b005b610071600480360381019061006c91906102cb565b6100b9565b005b83857fcc764439761d8740524a605553b347e2e898f60848419aeadb71d918d55e9393858585426040516100aa94939291906103a3565b60405180910390a35050505050565b847fa9dcdac9c6e3778f315d30860849628979c7ccaa5937c61312e98cf9cbc92c3185858585426040516100f1959493929190610446565b60405180910390a25050505050565b600080fd5b600080fd5b6000819050919050565b61011d8161010a565b811461012857600080fd5b50565b60008135905061013a81610114565b92915050565b6000819050919050565b61015381610140565b811461015e57600080fd5b50565b6000813590506101708161014a565b92915050565b600063ffffffff82169050919050565b61018f81610176565b811461019a57600080fd5b50565b6000813590506101ac81610186565b92915050565b600081600b0b9050919050565b6101c8816101b2565b81146101d357600080fd5b50565b6000813590506101e5816101bf565b92915050565b600080600080600060a0868803121561020757610206610100565b5b60006102158882890161012b565b95505060206102268882890161012b565b945050604061023788828901610161565b93505060606102488882890161019d565b9250506080610259888289016101d6565b9150509295509295909350565b600080fd5b600080fd5b600080fd5b60008083601f84011261028b5761028a610266565b5b8235905067ffffffffffffffff8111156102a8576102a761026b565b5b6020830191508360018202830111156102c4576102c3610270565b5b9250929050565b6000806000806000608086880312156102e7576102e6610100565b5b60006102f58882890161012b565b955050602061030688828901610161565b945050604086013567ffffffffffffffff81111561032757610326610105565b5b61033388828901610275565b935093505060606103468882890161019d565b9150509295509295909350565b61035c81610140565b82525050565b61036b81610176565b82525050565b61037a816101b2565b82525050565b600067ffffffffffffffff82169050919050565b61039d81610380565b82525050565b60006080820190506103b86000830187610353565b6103c56020830186610362565b6103d26040830185610371565b6103df6060830184610394565b95945050505050565b600082825260208201905092915050565b82818337600083830152505050565b6000601f19601f8301169050919050565b600061042583856103e8565b93506104328385846103f9565b61043b83610408565b840190509392505050565b600060808201905061045b6000830188610353565b818103602083015261046e818688610419565b905061047d6040830185610362565b61048a6060830184610394565b969550505050505056fea2646970667358221220eacaa4b1f6ba129eb92c73e1f6ab9bca2a19f332b89436fb4ec08309395e482f64736f6c63430008140033",
  "linkReferences": {},
  "deployedLinkReferences": {}
}